S01700004D696E694D617472697853747275702E73726563ED
S113000009C021C020C01FC01EC01DC01DC01BC010
S11300101AC019C011241FBECFE9CDBF10E0A0E65D
S1130020B0E0E0EAF2E002C005900D92A838B10712
S1130030D9F720E0A8E8B0E001C01D92A539B207C5
S1130040E1F794D02BC1DCCF1F920F920FB60F9221
S113005011248F9381E080938F008F910F900FBEB6
S11300600F901F90189517BA18BA0895660F771F46
S1130070660F771F860F971FFC01E05AFF4F21E0A0
S113008030E0A901008002C0440F551F0A94E2F732
S1130090FC01EC58FF4FC901008002C0880F991F72
S11300A00A94E2F7482B47BB88BB0895CF93DF93AC
S11300B0E199FECF80918A0060918800869590E056
S11300C070E0BDD00896E2D0D82FE199FECF209100
S11300D08A0060918800269530E0C901019670E09D
S11300E0AED00896D3D0C82FE199FECF20918A00D4
S11300F060918800269530E0C901029670E09FD097
S11301000896C4D090918A0090FF14C0DF70D093F9
S113011090009C2F92959F7090939100CF70C09304
S11301209200982F92959F70909393008F70809374
S1130130940014C09D2F92959F7090939000DF704F
S1130140D09391009C2F92959F7090939200CF70C2
S1130150C093930082958F708093940080918A005D
S11301608F5F80938A00DF91CF910895E199FECF4C
S113017081E090E08BD08093880082E08FBD83BFC4
S113018084E089BF82E386BF789490DF80918F00FA
S11301908823E9F110928F0080918D0090918E0058
S11301A0019629F410928E0010928D0009C080915E
S11301B08D0090918E00019690938E0080938D0017
S11301C0209189002370F22E022F10E0C091890043
S11301D0C695C695D0E047DFFE01E057FF4F40814A
S11301E050E09A0102C035952795FA94E2F720FF72
S11301F003C0BE01C8013ADF809189008F5F8093FC
S1130200890080918900843110F0109289008091D6
S11302108D0090918E0020918B0030918C00821B78
S1130220930B8139914008F4B1CF80918D00909166
S11302308E0090938C0080938B0038DFA7CF97FBC0
S1130240072E16F4009406D077FD08D00BD007FCD7
S113025005D03EF4909581959F4F089570956195D2
S11302607F4F0895AA1BBB1B51E107C0AA1FBB1FE8
S1130270A617B70710F0A61BB70B881F991F5A952E
S1130280A9F780959095BC01CD010895E199FECF21
S11302901FBA8EBBE09A99278DB30895F894FFCFC7
S11302A0000200010004000301030102020301042F
S11302B0030402040200010004000300030102011C
S10B02C003020401040304021B
S9030000FC
